{
  "_format": "hh3-artifact-1",
  "contractName": "YDToken",
  "sourceName": "contracts/YDToken.sol",
  "abi": [
    {
      "inputs": [],
      "stateMutability": "nonpayable",
      "type": "constructor"
    },
    {
      "inputs": [
        {
          "internalType": "address",
          "name": "spender",
          "type": "address"
        },
        {
          "internalType": "uint256",
          "name": "allowance",
          "type": "uint256"
        },
        {
          "internalType": "uint256",
          "name": "needed",
          "type": "uint256"
        }
      ],
      "name": "ERC20InsufficientAllowance",
      "type": "error"
    },
    {
      "inputs": [
        {
          "internalType": "address",
          "name": "sender",
          "type": "address"
        },
        {
          "internalType": "uint256",
          "name": "balance",
          "type": "uint256"
        },
        {
          "internalType": "uint256",
          "name": "needed",
          "type": "uint256"
        }
      ],
      "name": "ERC20InsufficientBalance",
      "type": "error"
    },
    {
      "inputs": [
        {
          "internalType": "address",
          "name": "approver",
          "type": "address"
        }
      ],
      "name": "ERC20InvalidApprover",
      "type": "error"
    },
    {
      "inputs": [
        {
          "internalType": "address",
          "name": "receiver",
          "type": "address"
        }
      ],
      "name": "ERC20InvalidReceiver",
      "type": "error"
    },
    {
      "inputs": [
        {
          "internalType": "address",
          "name": "sender",
          "type": "address"
        }
      ],
      "name": "ERC20InvalidSender",
      "type": "error"
    },
    {
      "inputs": [
        {
          "internalType": "address",
          "name": "spender",
          "type": "address"
        }
      ],
      "name": "ERC20InvalidSpender",
      "type": "error"
    },
    {
      "inputs": [
        {
          "internalType": "address",
          "name": "owner",
          "type": "address"
        }
      ],
      "name": "OwnableInvalidOwner",
      "type": "error"
    },
    {
      "inputs": [
        {
          "internalType": "address",
          "name": "account",
          "type": "address"
        }
      ],
      "name": "OwnableUnauthorizedAccount",
      "type": "error"
    },
    {
      "inputs": [],
      "name": "ReentrancyGuardReentrantCall",
      "type": "error"
    },
    {
      "anonymous": false,
      "inputs": [
        {
          "indexed": true,
          "internalType": "address",
          "name": "owner",
          "type": "address"
        },
        {
          "indexed": true,
          "internalType": "address",
          "name": "spender",
          "type": "address"
        },
        {
          "indexed": false,
          "internalType": "uint256",
          "name": "value",
          "type": "uint256"
        }
      ],
      "name": "Approval",
      "type": "event"
    },
    {
      "anonymous": false,
      "inputs": [
        {
          "indexed": true,
          "internalType": "address",
          "name": "previousOwner",
          "type": "address"
        },
        {
          "indexed": true,
          "internalType": "address",
          "name": "newOwner",
          "type": "address"
        }
      ],
      "name": "OwnershipTransferred",
      "type": "event"
    },
    {
      "anonymous": false,
      "inputs": [
        {
          "indexed": true,
          "internalType": "address",
          "name": "buyer",
          "type": "address"
        },
        {
          "indexed": false,
          "internalType": "uint256",
          "name": "ethAmount",
          "type": "uint256"
        },
        {
          "indexed": false,
          "internalType": "uint256",
          "name": "tokenAmount",
          "type": "uint256"
        }
      ],
      "name": "TokensPurchased",
      "type": "event"
    },
    {
      "anonymous": false,
      "inputs": [
        {
          "indexed": true,
          "internalType": "address",
          "name": "seller",
          "type": "address"
        },
        {
          "indexed": false,
          "internalType": "uint256",
          "name": "tokenAmount",
          "type": "uint256"
        },
        {
          "indexed": false,
          "internalType": "uint256",
          "name": "ethAmount",
          "type": "uint256"
        }
      ],
      "name": "TokensSold",
      "type": "event"
    },
    {
      "anonymous": false,
      "inputs": [
        {
          "indexed": true,
          "internalType": "address",
          "name": "from",
          "type": "address"
        },
        {
          "indexed": true,
          "internalType": "address",
          "name": "to",
          "type": "address"
        },
        {
          "indexed": false,
          "internalType": "uint256",
          "name": "value",
          "type": "uint256"
        }
      ],
      "name": "Transfer",
      "type": "event"
    },
    {
      "inputs": [],
      "name": "EXCHANGE_RATE",
      "outputs": [
        {
          "internalType": "uint256",
          "name": "",
          "type": "uint256"
        }
      ],
      "stateMutability": "view",
      "type": "function"
    },
    {
      "inputs": [],
      "name": "addLiquidity",
      "outputs": [],
      "stateMutability": "payable",
      "type": "function"
    },
    {
      "inputs": [
        {
          "internalType": "address",
          "name": "owner",
          "type": "address"
        },
        {
          "internalType": "address",
          "name": "spender",
          "type": "address"
        }
      ],
      "name": "allowance",
      "outputs": [
        {
          "internalType": "uint256",
          "name": "",
          "type": "uint256"
        }
      ],
      "stateMutability": "view",
      "type": "function"
    },
    {
      "inputs": [
        {
          "internalType": "address",
          "name": "spender",
          "type": "address"
        },
        {
          "internalType": "uint256",
          "name": "value",
          "type": "uint256"
        }
      ],
      "name": "approve",
      "outputs": [
        {
          "internalType": "bool",
          "name": "",
          "type": "bool"
        }
      ],
      "stateMutability": "nonpayable",
      "type": "function"
    },
    {
      "inputs": [
        {
          "internalType": "address",
          "name": "account",
          "type": "address"
        }
      ],
      "name": "balanceOf",
      "outputs": [
        {
          "internalType": "uint256",
          "name": "",
          "type": "uint256"
        }
      ],
      "stateMutability": "view",
      "type": "function"
    },
    {
      "inputs": [],
      "name": "buyTokensWithETH",
      "outputs": [],
      "stateMutability": "payable",
      "type": "function"
    },
    {
      "inputs": [],
      "name": "decimals",
      "outputs": [
        {
          "internalType": "uint8",
          "name": "",
          "type": "uint8"
        }
      ],
      "stateMutability": "view",
      "type": "function"
    },
    {
      "inputs": [
        {
          "internalType": "uint256",
          "name": "tokenAmount",
          "type": "uint256"
        }
      ],
      "name": "getETHAmount",
      "outputs": [
        {
          "internalType": "uint256",
          "name": "",
          "type": "uint256"
        }
      ],
      "stateMutability": "pure",
      "type": "function"
    },
    {
      "inputs": [
        {
          "internalType": "uint256",
          "name": "ethAmount",
          "type": "uint256"
        }
      ],
      "name": "getTokenAmount",
      "outputs": [
        {
          "internalType": "uint256",
          "name": "",
          "type": "uint256"
        }
      ],
      "stateMutability": "pure",
      "type": "function"
    },
    {
      "inputs": [],
      "name": "name",
      "outputs": [
        {
          "internalType": "string",
          "name": "",
          "type": "string"
        }
      ],
      "stateMutability": "view",
      "type": "function"
    },
    {
      "inputs": [],
      "name": "owner",
      "outputs": [
        {
          "internalType": "address",
          "name": "",
          "type": "address"
        }
      ],
      "stateMutability": "view",
      "type": "function"
    },
    {
      "inputs": [],
      "name": "renounceOwnership",
      "outputs": [],
      "stateMutability": "nonpayable",
      "type": "function"
    },
    {
      "inputs": [
        {
          "internalType": "uint256",
          "name": "tokenAmount",
          "type": "uint256"
        }
      ],
      "name": "sellTokensForETH",
      "outputs": [],
      "stateMutability": "nonpayable",
      "type": "function"
    },
    {
      "inputs": [],
      "name": "symbol",
      "outputs": [
        {
          "internalType": "string",
          "name": "",
          "type": "string"
        }
      ],
      "stateMutability": "view",
      "type": "function"
    },
    {
      "inputs": [],
      "name": "totalSupply",
      "outputs": [
        {
          "internalType": "uint256",
          "name": "",
          "type": "uint256"
        }
      ],
      "stateMutability": "view",
      "type": "function"
    },
    {
      "inputs": [
        {
          "internalType": "address",
          "name": "to",
          "type": "address"
        },
        {
          "internalType": "uint256",
          "name": "value",
          "type": "uint256"
        }
      ],
      "name": "transfer",
      "outputs": [
        {
          "internalType": "bool",
          "name": "",
          "type": "bool"
        }
      ],
      "stateMutability": "nonpayable",
      "type": "function"
    },
    {
      "inputs": [
        {
          "internalType": "address",
          "name": "from",
          "type": "address"
        },
        {
          "internalType": "address",
          "name": "to",
          "type": "address"
        },
        {
          "internalType": "uint256",
          "name": "value",
          "type": "uint256"
        }
      ],
      "name": "transferFrom",
      "outputs": [
        {
          "internalType": "bool",
          "name": "",
          "type": "bool"
        }
      ],
      "stateMutability": "nonpayable",
      "type": "function"
    },
    {
      "inputs": [
        {
          "internalType": "address",
          "name": "newOwner",
          "type": "address"
        }
      ],
      "name": "transferOwnership",
      "outputs": [],
      "stateMutability": "nonpayable",
      "type": "function"
    },
    {
      "inputs": [
        {
          "internalType": "uint256",
          "name": "amount",
          "type": "uint256"
        }
      ],
      "name": "withdrawETH",
      "outputs": [],
      "stateMutability": "nonpayable",
      "type": "function"
    },
    {
      "stateMutability": "payable",
      "type": "receive"
    }
  ],
  "bytecode": "0x608060405234801561000f575f5ffd5b5033604051806040016040528060088152602001672ca2102a37b5b2b760c11b81525060405180604001604052806002815260200161165160f21b815250816003908161005c9190610317565b5060046100698282610317565b5050506001600160a01b03811661009a57604051631e4fbdf760e01b81525f60048201526024015b60405180910390fd5b6100a3816100d0565b5060016006556100cb336100b96012600a6104ca565b6100c690620f42406104df565b610121565b610509565b600580546001600160a01b038381166001600160a01b0319831681179093556040519116919082907f8be0079c531659141344cd1fd0a4f28419497f9722a3daafe3b4186f6b6457e0905f90a35050565b6001600160a01b03821661014a5760405163ec442f0560e01b81525f6004820152602401610091565b6101555f8383610159565b5050565b6001600160a01b038316610183578060025f82825461017891906104f6565b909155506101f39050565b6001600160a01b0383165f90815260208190526040902054818110156101d55760405163391434e360e21b81526001600160a01b03851660048201526024810182905260448101839052606401610091565b6001600160a01b0384165f9081526020819052604090209082900390555b6001600160a01b03821661020f5760028054829003905561022d565b6001600160a01b0382165f9081526020819052604090208054820190555b816001600160a01b0316836001600160a01b03167fddf252ad1be2c89b69c2b068fc378daa952ba7f163c4a11628f55a4df523b3ef8360405161027291815260200190565b60405180910390a3505050565b634e487b7160e01b5f52604160045260245ffd5b600181811c908216806102a757607f821691505b6020821081036102c557634e487b7160e01b5f52602260045260245ffd5b50919050565b601f82111561031257805f5260205f20601f840160051c810160208510156102f05750805b601f840160051c820191505b8181101561030f575f81556001016102fc565b50505b505050565b81516001600160401b038111156103305761033061027f565b6103448161033e8454610293565b846102cb565b6020601f821160018114610376575f831561035f5750848201515b5f19600385901b1c1916600184901b17845561030f565b5f84815260208120601f198516915b828110156103a55787850151825560209485019460019092019101610385565b50848210156103c257868401515f19600387901b60f8161c191681555b50505050600190811b01905550565b634e487b7160e01b5f52601160045260245ffd5b6001815b600184111561042057808504811115610404576104046103d1565b600184161561041257908102905b60019390931c9280026103e9565b935093915050565b5f82610436575060016104c4565b8161044257505f6104c4565b816001811461045857600281146104625761047e565b60019150506104c4565b60ff841115610473576104736103d1565b50506001821b6104c4565b5060208310610133831016604e8410600b84101617156104a1575081810a6104c4565b6104ad5f1984846103e5565b805f19048211156104c0576104c06103d1565b0290505b92915050565b5f6104d860ff841683610428565b9392505050565b80820281158282048414176104c4576104c46103d1565b808201808211156104c4576104c46103d1565b610da1806105165f395ff3fe608060405260043610610113575f3560e01c806395d89b411161009d578063e8078d9411610062578063e8078d94146102f7578063ef46b2ab146102ff578063f14210a61461031e578063f2fde38b1461033d578063f417fbed1461035c575f5ffd5b806395d89b41146102595780639c0caad61461026d578063a9059cbb14610275578063c2507ac114610294578063dd62ed3e146102b3575f5ffd5b806323b872dd116100e357806323b872dd146101ae578063313ce567146101cd57806370a08231146101e8578063715018a61461021c5780638da5cb5b14610232575f5ffd5b806306fdde031461011e578063095ea7b31461014857806314a8bd0d1461017757806318160ddd1461019a575f5ffd5b3661011a57005b5f5ffd5b348015610129575f5ffd5b5061013261037b565b60405161013f9190610bbc565b60405180910390f35b348015610153575f5ffd5b50610167610162366004610c0c565b61040b565b604051901515815260200161013f565b348015610182575f5ffd5b5061018c610fa081565b60405190815260200161013f565b3480156101a5575f5ffd5b5060025461018c565b3480156101b9575f5ffd5b506101676101c8366004610c34565b610424565b3480156101d8575f5ffd5b506040516012815260200161013f565b3480156101f3575f5ffd5b5061018c610202366004610c6e565b6001600160a01b03165f9081526020819052604090205490565b348015610227575f5ffd5b50610230610447565b005b34801561023d575f5ffd5b506005546040516001600160a01b03909116815260200161013f565b348015610264575f5ffd5b5061013261045a565b610230610469565b348015610280575f5ffd5b5061016761028f366004610c0c565b61052e565b34801561029f575f5ffd5b5061018c6102ae366004610c8e565b61053b565b3480156102be575f5ffd5b5061018c6102cd366004610ca5565b6001600160a01b039182165f90815260016020908152604080832093909416825291909152205490565b610230610548565b34801561030a575f5ffd5b5061018c610319366004610c8e565b610550565b348015610329575f5ffd5b50610230610338366004610c8e565b61055d565b348015610348575f5ffd5b50610230610357366004610c6e565b6105e7565b348015610367575f5ffd5b50610230610376366004610c8e565b610624565b60606003805461038a90610cd6565b80601f01602080910402602001604051908101604052809291908181526020018280546103b690610cd6565b80156104015780601f106103d857610100808354040283529160200191610401565b820191905f5260205f20905b8154815290600101906020018083116103e457829003601f168201915b5050505050905090565b5f336104188185856107c9565b60019150505b92915050565b5f336104318582856107db565b61043c858585610857565b506001949350505050565b61044f6108b4565b6104585f6108e1565b565b60606004805461038a90610cd6565b610471610932565b5f34116104cf5760405162461bcd60e51b815260206004820152602160248201527f45544820616d6f756e74206d7573742062652067726561746572207468616e206044820152600360fc1b60648201526084015b60405180910390fd5b5f6104dc610fa034610d22565b90506104e8338261095c565b604080513481526020810183905233917f8fafebcaf9d154343dad25669bfa277f4fbacd7ac6b0c4fed522580e040a0f33910160405180910390a2506104586001600655565b5f33610418818585610857565b5f61041e610fa083610d22565b6104586108b4565b5f61041e610fa083610d39565b6105656108b4565b804710156105ac5760405162461bcd60e51b8152602060048201526014602482015273496e73756666696369656e742062616c616e636560601b60448201526064016104c6565b6005546040516001600160a01b039091169082156108fc029083905f818181858888f193505050501580156105e3573d5f5f3e3d5ffd5b5050565b6105ef6108b4565b6001600160a01b03811661061857604051631e4fbdf760e01b81525f60048201526024016104c6565b610621816108e1565b50565b61062c610932565b5f81116106875760405162461bcd60e51b815260206004820152602360248201527f546f6b656e20616d6f756e74206d75737420626520677265617465722074686160448201526206e20360ec1b60648201526084016104c6565b335f908152602081905260409020548111156106e55760405162461bcd60e51b815260206004820152601a60248201527f496e73756666696369656e7420746f6b656e2062616c616e636500000000000060448201526064016104c6565b5f6106f2610fa083610d39565b90508047101561074e5760405162461bcd60e51b815260206004820152602160248201527f496e73756666696369656e7420636f6e7472616374204554482062616c616e636044820152606560f81b60648201526084016104c6565b6107583383610990565b604051339082156108fc029083905f818181858888f19350505050158015610782573d5f5f3e3d5ffd5b50604080518381526020810183905233917f2dcf9433d75db0d8b1c172641f85e319ffe4ad22e108a95d1847ceb906e5195d910160405180910390a2506106216001600655565b6107d683838360016109c4565b505050565b6001600160a01b038381165f908152600160209081526040808320938616835292905220545f19811015610851578181101561084357604051637dc7a0d960e11b81526001600160a01b038416600482015260248101829052604481018390526064016104c6565b61085184848484035f6109c4565b50505050565b6001600160a01b03831661088057604051634b637e8f60e11b81525f60048201526024016104c6565b6001600160a01b0382166108a95760405163ec442f0560e01b81525f60048201526024016104c6565b6107d6838383610a96565b6005546001600160a01b031633146104585760405163118cdaa760e01b81523360048201526024016104c6565b600580546001600160a01b038381166001600160a01b0319831681179093556040519116919082907f8be0079c531659141344cd1fd0a4f28419497f9722a3daafe3b4186f6b6457e0905f90a35050565b60026006540361095557604051633ee5aeb560e01b815260040160405180910390fd5b6002600655565b6001600160a01b0382166109855760405163ec442f0560e01b81525f60048201526024016104c6565b6105e35f8383610a96565b6001600160a01b0382166109b957604051634b637e8f60e11b81525f60048201526024016104c6565b6105e3825f83610a96565b6001600160a01b0384166109ed5760405163e602df0560e01b81525f60048201526024016104c6565b6001600160a01b038316610a1657604051634a1406b160e11b81525f60048201526024016104c6565b6001600160a01b038085165f908152600160209081526040808320938716835292905220829055801561085157826001600160a01b0316846001600160a01b03167f8c5be1e5ebec7d5bd14f71427d1e84f3dd0314c0f7b2291e5b200ac8c7c3b92584604051610a8891815260200190565b60405180910390a350505050565b6001600160a01b038316610ac0578060025f828254610ab59190610d58565b90915550610b309050565b6001600160a01b0383165f9081526020819052604090205481811015610b125760405163391434e360e21b81526001600160a01b038516600482015260248101829052604481018390526064016104c6565b6001600160a01b0384165f9081526020819052604090209082900390555b6001600160a01b038216610b4c57600280548290039055610b6a565b6001600160a01b0382165f9081526020819052604090208054820190555b816001600160a01b0316836001600160a01b03167fddf252ad1be2c89b69c2b068fc378daa952ba7f163c4a11628f55a4df523b3ef83604051610baf91815260200190565b60405180910390a3505050565b602081525f82518060208401528060208501604085015e5f604082850101526040601f19601f83011684010191505092915050565b80356001600160a01b0381168114610c07575f5ffd5b919050565b5f5f60408385031215610c1d575f5ffd5b610c2683610bf1565b946020939093013593505050565b5f5f5f60608486031215610c46575f5ffd5b610c4f84610bf1565b9250610c5d60208501610bf1565b929592945050506040919091013590565b5f60208284031215610c7e575f5ffd5b610c8782610bf1565b9392505050565b5f60208284031215610c9e575f5ffd5b5035919050565b5f5f60408385031215610cb6575f5ffd5b610cbf83610bf1565b9150610ccd60208401610bf1565b90509250929050565b600181811c90821680610cea57607f821691505b602082108103610d0857634e487b7160e01b5f52602260045260245ffd5b50919050565b634e487b7160e01b5f52601160045260245ffd5b808202811582820484141761041e5761041e610d0e565b5f82610d5357634e487b7160e01b5f52601260045260245ffd5b500490565b8082018082111561041e5761041e610d0e56fea26469706673582212203000cf6fa6036a063ceff59abeadbde991920a0fce0c08d7bb1383eca672d3d264736f6c634300081c0033",
  "linkReferences": {},
  "deployedLinkReferences": {},
  "immutableReferences": {},
  "inputSourceName": "project/contracts/YDToken.sol",
  "buildInfoId": "solc-0_8_28-cc2bab70d5a9394f35827c5efb17b7928b38722d"
}