{
  "_format": "hh3-artifact-1",
  "contractName": "CoursePlatform",
  "sourceName": "contracts/CoursePlatform.sol",
  "abi": [
    {
      "inputs": [
        {
          "internalType": "address",
          "name": "_ydTokenAddress",
          "type": "address"
        }
      ],
      "stateMutability": "nonpayable",
      "type": "constructor"
    },
    {
      "inputs": [
        {
          "internalType": "address",
          "name": "owner",
          "type": "address"
        }
      ],
      "name": "OwnableInvalidOwner",
      "type": "error"
    },
    {
      "inputs": [
        {
          "internalType": "address",
          "name": "account",
          "type": "address"
        }
      ],
      "name": "OwnableUnauthorizedAccount",
      "type": "error"
    },
    {
      "inputs": [],
      "name": "ReentrancyGuardReentrantCall",
      "type": "error"
    },
    {
      "inputs": [
        {
          "internalType": "address",
          "name": "token",
          "type": "address"
        }
      ],
      "name": "SafeERC20FailedOperation",
      "type": "error"
    },
    {
      "anonymous": false,
      "inputs": [
        {
          "indexed": true,
          "internalType": "uint256",
          "name": "courseId",
          "type": "uint256"
        },
        {
          "indexed": true,
          "internalType": "address",
          "name": "author",
          "type": "address"
        },
        {
          "indexed": false,
          "internalType": "uint256",
          "name": "price",
          "type": "uint256"
        }
      ],
      "name": "CourseCreated",
      "type": "event"
    },
    {
      "anonymous": false,
      "inputs": [
        {
          "indexed": true,
          "internalType": "uint256",
          "name": "courseId",
          "type": "uint256"
        },
        {
          "indexed": true,
          "internalType": "address",
          "name": "student",
          "type": "address"
        },
        {
          "indexed": true,
          "internalType": "address",
          "name": "author",
          "type": "address"
        },
        {
          "indexed": false,
          "internalType": "uint256",
          "name": "price",
          "type": "uint256"
        }
      ],
      "name": "CoursePurchased",
      "type": "event"
    },
    {
      "anonymous": false,
      "inputs": [
        {
          "indexed": true,
          "internalType": "address",
          "name": "applicant",
          "type": "address"
        }
      ],
      "name": "InstructorApplicationSubmitted",
      "type": "event"
    },
    {
      "anonymous": false,
      "inputs": [
        {
          "indexed": true,
          "internalType": "address",
          "name": "instructor",
          "type": "address"
        }
      ],
      "name": "InstructorApproved",
      "type": "event"
    },
    {
      "anonymous": false,
      "inputs": [
        {
          "indexed": true,
          "internalType": "address",
          "name": "previousOwner",
          "type": "address"
        },
        {
          "indexed": true,
          "internalType": "address",
          "name": "newOwner",
          "type": "address"
        }
      ],
      "name": "OwnershipTransferred",
      "type": "event"
    },
    {
      "anonymous": false,
      "inputs": [
        {
          "indexed": false,
          "internalType": "uint256",
          "name": "newFeeRate",
          "type": "uint256"
        }
      ],
      "name": "PlatformFeeUpdated",
      "type": "event"
    },
    {
      "inputs": [],
      "name": "applyToBeInstructor",
      "outputs": [],
      "stateMutability": "nonpayable",
      "type": "function"
    },
    {
      "inputs": [
        {
          "internalType": "address",
          "name": "instructor",
          "type": "address"
        }
      ],
      "name": "approveInstructor",
      "outputs": [],
      "stateMutability": "nonpayable",
      "type": "function"
    },
    {
      "inputs": [
        {
          "internalType": "address",
          "name": "",
          "type": "address"
        },
        {
          "internalType": "uint256",
          "name": "",
          "type": "uint256"
        }
      ],
      "name": "authorCourses",
      "outputs": [
        {
          "internalType": "uint256",
          "name": "",
          "type": "uint256"
        }
      ],
      "stateMutability": "view",
      "type": "function"
    },
    {
      "inputs": [
        {
          "internalType": "uint256",
          "name": "courseId",
          "type": "uint256"
        }
      ],
      "name": "buyCourse",
      "outputs": [],
      "stateMutability": "nonpayable",
      "type": "function"
    },
    {
      "inputs": [
        {
          "internalType": "uint256",
          "name": "",
          "type": "uint256"
        }
      ],
      "name": "courses",
      "outputs": [
        {
          "internalType": "uint256",
          "name": "id",
          "type": "uint256"
        },
        {
          "internalType": "address",
          "name": "author",
          "type": "address"
        },
        {
          "internalType": "uint256",
          "name": "price",
          "type": "uint256"
        },
        {
          "internalType": "bool",
          "name": "isActive",
          "type": "bool"
        },
        {
          "internalType": "uint256",
          "name": "createdAt",
          "type": "uint256"
        },
        {
          "internalType": "uint256",
          "name": "totalSales",
          "type": "uint256"
        },
        {
          "internalType": "uint256",
          "name": "studentCount",
          "type": "uint256"
        }
      ],
      "stateMutability": "view",
      "type": "function"
    },
    {
      "inputs": [
        {
          "internalType": "uint256",
          "name": "price",
          "type": "uint256"
        }
      ],
      "name": "createCourse",
      "outputs": [
        {
          "internalType": "uint256",
          "name": "",
          "type": "uint256"
        }
      ],
      "stateMutability": "nonpayable",
      "type": "function"
    },
    {
      "inputs": [
        {
          "internalType": "address",
          "name": "author",
          "type": "address"
        }
      ],
      "name": "getAuthorCourses",
      "outputs": [
        {
          "internalType": "uint256[]",
          "name": "",
          "type": "uint256[]"
        }
      ],
      "stateMutability": "view",
      "type": "function"
    },
    {
      "inputs": [
        {
          "internalType": "uint256",
          "name": "courseId",
          "type": "uint256"
        }
      ],
      "name": "getCourse",
      "outputs": [
        {
          "components": [
            {
              "internalType": "uint256",
              "name": "id",
              "type": "uint256"
            },
            {
              "internalType": "address",
              "name": "author",
              "type": "address"
            },
            {
              "internalType": "uint256",
              "name": "price",
              "type": "uint256"
            },
            {
              "internalType": "bool",
              "name": "isActive",
              "type": "bool"
            },
            {
              "internalType": "uint256",
              "name": "createdAt",
              "type": "uint256"
            },
            {
              "internalType": "uint256",
              "name": "totalSales",
              "type": "uint256"
            },
            {
              "internalType": "uint256",
              "name": "studentCount",
              "type": "uint256"
            }
          ],
          "internalType": "struct CoursePlatform.Course",
          "name": "",
          "type": "tuple"
        }
      ],
      "stateMutability": "view",
      "type": "function"
    },
    {
      "inputs": [],
      "name": "getTotalCourses",
      "outputs": [
        {
          "internalType": "uint256",
          "name": "",
          "type": "uint256"
        }
      ],
      "stateMutability": "view",
      "type": "function"
    },
    {
      "inputs": [
        {
          "internalType": "address",
          "name": "user",
          "type": "address"
        }
      ],
      "name": "getUserPurchasedCourses",
      "outputs": [
        {
          "internalType": "uint256[]",
          "name": "",
          "type": "uint256[]"
        }
      ],
      "stateMutability": "view",
      "type": "function"
    },
    {
      "inputs": [
        {
          "internalType": "uint256",
          "name": "",
          "type": "uint256"
        },
        {
          "internalType": "address",
          "name": "",
          "type": "address"
        }
      ],
      "name": "hasPurchased",
      "outputs": [
        {
          "internalType": "bool",
          "name": "",
          "type": "bool"
        }
      ],
      "stateMutability": "view",
      "type": "function"
    },
    {
      "inputs": [
        {
          "internalType": "uint256",
          "name": "courseId",
          "type": "uint256"
        },
        {
          "internalType": "address",
          "name": "user",
          "type": "address"
        }
      ],
      "name": "hasUserPurchasedCourse",
      "outputs": [
        {
          "internalType": "bool",
          "name": "",
          "type": "bool"
        }
      ],
      "stateMutability": "view",
      "type": "function"
    },
    {
      "inputs": [
        {
          "internalType": "address",
          "name": "",
          "type": "address"
        }
      ],
      "name": "instructorApplications",
      "outputs": [
        {
          "internalType": "bool",
          "name": "",
          "type": "bool"
        }
      ],
      "stateMutability": "view",
      "type": "function"
    },
    {
      "inputs": [
        {
          "internalType": "address",
          "name": "",
          "type": "address"
        }
      ],
      "name": "isInstructor",
      "outputs": [
        {
          "internalType": "bool",
          "name": "",
          "type": "bool"
        }
      ],
      "stateMutability": "view",
      "type": "function"
    },
    {
      "inputs": [],
      "name": "nextCourseId",
      "outputs": [
        {
          "internalType": "uint256",
          "name": "",
          "type": "uint256"
        }
      ],
      "stateMutability": "view",
      "type": "function"
    },
    {
      "inputs": [],
      "name": "owner",
      "outputs": [
        {
          "internalType": "address",
          "name": "",
          "type": "address"
        }
      ],
      "stateMutability": "view",
      "type": "function"
    },
    {
      "inputs": [],
      "name": "platformFeeRate",
      "outputs": [
        {
          "internalType": "uint256",
          "name": "",
          "type": "uint256"
        }
      ],
      "stateMutability": "view",
      "type": "function"
    },
    {
      "inputs": [],
      "name": "renounceOwnership",
      "outputs": [],
      "stateMutability": "nonpayable",
      "type": "function"
    },
    {
      "inputs": [
        {
          "internalType": "uint256",
          "name": "newFeeRate",
          "type": "uint256"
        }
      ],
      "name": "setPlatformFeeRate",
      "outputs": [],
      "stateMutability": "nonpayable",
      "type": "function"
    },
    {
      "inputs": [
        {
          "internalType": "uint256",
          "name": "courseId",
          "type": "uint256"
        }
      ],
      "name": "toggleCourseStatus",
      "outputs": [],
      "stateMutability": "nonpayable",
      "type": "function"
    },
    {
      "inputs": [
        {
          "internalType": "address",
          "name": "newOwner",
          "type": "address"
        }
      ],
      "name": "transferOwnership",
      "outputs": [],
      "stateMutability": "nonpayable",
      "type": "function"
    },
    {
      "inputs": [
        {
          "internalType": "address",
          "name": "",
          "type": "address"
        },
        {
          "internalType": "uint256",
          "name": "",
          "type": "uint256"
        }
      ],
      "name": "userPurchasedCourses",
      "outputs": [
        {
          "internalType": "uint256",
          "name": "",
          "type": "uint256"
        }
      ],
      "stateMutability": "view",
      "type": "function"
    },
    {
      "inputs": [],
      "name": "ydToken",
      "outputs": [
        {
          "internalType": "contract IERC20",
          "name": "",
          "type": "address"
        }
      ],
      "stateMutability": "view",
      "type": "function"
    }
  ],
  "bytecode": "0x608060405260fa6003556001600855348015610019575f5ffd5b506040516112d03803806112d0833981016040819052610038916100df565b338061005d57604051631e4fbdf760e01b81525f600482015260240160405180910390fd5b61006681610090565b5060018055600280546001600160a01b0319166001600160a01b039290921691909117905561010c565b5f80546001600160a01b038381166001600160a01b0319831681178455604051919092169283917f8be0079c531659141344cd1fd0a4f28419497f9722a3daafe3b4186f6b6457e09190a35050565b5f602082840312156100ef575f5ffd5b81516001600160a01b0381168114610105575f5ffd5b9392505050565b6111b7806101195f395ff3fe608060405234801561000f575f5ffd5b5060043610610148575f3560e01c8063927fef2e116100bf578063b9c5c02211610079578063b9c5c022146103b4578063d4cba21c146103c7578063dc9da2f8146103cf578063ee315d89146103fc578063eeca08f01461040f578063f2fde38b14610418575f5ffd5b8063927fef2e1461029b57806396f979d2146102ae5780639773cec414610345578063a042cb4d14610368578063a3afcea214610370578063a9d9451f14610392575f5ffd5b80635af479c1116101105780635af479c11461022d5780636c8f41a314610240578063715018a6146102535780637d83daf21461025b578063858efaf3146102645780638da5cb5b14610277575f5ffd5b80630b91e28d1461014c5780630bfc5266146101c4578063194d73a2146101d95780632e339646146101ec5780635899f5831461020d575b5f5ffd5b61015f61015a366004610ffc565b61042b565b6040516101bb9190815181526020808301516001600160a01b031690820152604080830151908201526060808301511515908201526080808301519082015260a0808301519082015260c0918201519181019190915260e00190565b60405180910390f35b6101d76101d2366004610ffc565b6104de565b005b6101d76101e7366004610ffc565b610567565b6101ff6101fa366004610ffc565b610892565b6040519081526020016101bb565b61022061021b36600461102e565b610a97565b6040516101bb919061104e565b6101ff61023b366004611090565b610b00565b6101ff61024e366004611090565b610b2b565b6101d7610b44565b6101ff60085481565b61022061027236600461102e565b610b57565b5f546001600160a01b03165b6040516001600160a01b0390911681526020016101bb565b6101d76102a9366004610ffc565b610bbe565b6103086102bc366004610ffc565b600460208190525f9182526040909120805460018201546002830154600384015494840154600585015460069095015493956001600160a01b0390931694919360ff9093169290919087565b604080519788526001600160a01b039096166020880152948601939093529015156060850152608084015260a083015260c082015260e0016101bb565b6103586103533660046110b8565b610c53565b60405190151581526020016101bb565b6101d7610c7f565b61035861037e36600461102e565b60096020525f908152604090205460ff1681565b6103586103a036600461102e565b600a6020525f908152604090205460ff1681565b600254610283906001600160a01b031681565b6101ff610d76565b6103586103dd3660046110b8565b600560209081525f928352604080842090915290825290205460ff1681565b6101d761040a36600461102e565b610d8b565b6101ff60035481565b6101d761042636600461102e565b610e51565b61046f6040518060e001604052805f81526020015f6001600160a01b031681526020015f81526020015f151581526020015f81526020015f81526020015f81525090565b505f90815260046020818152604092839020835160e0810185528154815260018201546001600160a01b031692810192909252600281015493820193909352600383015460ff1615156060820152908201546080820152600582015460a082015260069091015460c082015290565b5f81815260046020526040902060018101546001600160a01b031633148061050f57505f546001600160a01b031633145b6105515760405162461bcd60e51b815260206004820152600e60248201526d139bdd08185d5d1a1bdc9a5e995960921b60448201526064015b60405180910390fd5b600301805460ff19811660ff9091161517905550565b61056f610e8b565b5f81815260046020526040902060018101546001600160a01b03166105ce5760405162461bcd60e51b815260206004820152601560248201527410dbdd5c9cd948191bd95cc81b9bdd08195e1a5cdd605a1b6044820152606401610548565b600381015460ff166106195760405162461bcd60e51b8152602060048201526014602482015273436f75727365206973206e6f742061637469766560601b6044820152606401610548565b5f82815260056020908152604080832033845290915290205460ff16156106825760405162461bcd60e51b815260206004820152601d60248201527f416c726561647920707572636861736564207468697320636f757273650000006044820152606401610548565b60028181015490546040516370a0823160e01b81523360048201526001600160a01b03909116906370a0823190602401602060405180830381865afa1580156106cd573d5f5f3e3d5ffd5b505050506040513d601f19601f820116820180604052508101906106f191906110e2565b101561073f5760405162461bcd60e51b815260206004820152601d60248201527f496e73756666696369656e7420594420746f6b656e2062616c616e63650000006044820152606401610548565b5f6127106003548360020154610755919061110d565b61075f9190611124565b90505f8183600201546107729190611143565b6001840154600254919250610796916001600160a01b039081169133911684610eb5565b81156107c5576107c5336107b15f546001600160a01b031690565b6002546001600160a01b0316919085610eb5565b5f8481526005602081815260408084203385528252808420805460ff191660019081179091556007835290842080549182018155845290832001869055600285015490850180549192909161081b908490611156565b9091555050600683018054905f61083183611169565b9091555050600183015460028401546040519081526001600160a01b0390911690339086907fe53bd3319c04c87d79fe758a7ac40d85011f9672189924eaca0fc2175657fd9e9060200160405180910390a450505061088f60018055565b50565b335f9081526009602052604081205460ff166108fc5760405162461bcd60e51b815260206004820152602360248201527f4f6e6c7920696e7374727563746f72732063616e2063726561746520636f757260448201526273657360e81b6064820152608401610548565b5f821161094b5760405162461bcd60e51b815260206004820152601c60248201527f5072696365206d7573742062652067726561746572207468616e2030000000006044820152606401610548565b600880545f918261095b83611169565b909155506040805160e08101825282815233602080830182815283850189815260016060860181815242608088019081525f60a0890181815260c08a018281528c83526004808a528c84209b518c5597518b870180546001600160a01b03929092166001600160a01b0319909216919091179055955160028b0155925160038a01805491151560ff19928316179055915195890195909555905160058089019190915592516006978801558584529584528683208054808301825590845284842001889055878352908352858220848352835285822080549095168117909455600782528481208054948501815581522090910183905590519192509082907fd5752151d5fdb631899f5c4c065a24fd8ab111096f119c44b3539965c4de0cd490610a899087815260200190565b60405180910390a392915050565b6001600160a01b0381165f90815260076020908152604091829020805483518184028101840190945280845260609392830182828015610af457602002820191905f5260205f20905b815481526020019060010190808311610ae0575b50505050509050919050565b6006602052815f5260405f208181548110610b19575f80fd5b905f5260205f20015f91509150505481565b6007602052815f5260405f208181548110610b19575f80fd5b610b4c610f15565b610b555f610f41565b565b6001600160a01b0381165f90815260066020908152604091829020805483518184028101840190945280845260609392830182828015610af457602002820191905f5260205f2090815481526020019060010190808311610ae05750505050509050919050565b610bc6610f15565b6103e8811115610c185760405162461bcd60e51b815260206004820152601a60248201527f46656520726174652063616e6e6f7420657863656564203130250000000000006044820152606401610548565b60038190556040518181527f45610d581145924dd7090a5017e5f2b1d6f42213bb2e95707ff86846bbfcb1ca9060200160405180910390a150565b5f8281526005602090815260408083206001600160a01b038516845290915290205460ff165b92915050565b335f9081526009602052604090205460ff1615610cd65760405162461bcd60e51b815260206004820152601560248201527420b63932b0b23c9030b71034b739ba393ab1ba37b960591b6044820152606401610548565b335f908152600a602052604090205460ff1615610d355760405162461bcd60e51b815260206004820152601d60248201527f4170706c69636174696f6e20616c7265616479207375626d69747465640000006044820152606401610548565b335f818152600a6020526040808220805460ff19166001179055517f31effe53ac0eeea3274d172f5411e419bf6f0ffdfca517a6e6632f23dce9a8329190a2565b5f6001600854610d869190611143565b905090565b610d93610f15565b6001600160a01b0381165f908152600a602052604090205460ff16610df15760405162461bcd60e51b8152602060048201526014602482015273139bc8185c1c1b1a58d85d1a5bdb88199bdd5b9960621b6044820152606401610548565b6001600160a01b0381165f818152600960209081526040808320805460ff19908116600117909155600a9092528083208054909216909155517ff19289690c2465cbdcfd1af81c37f6dcd891670b7d83b9bd245924d23f36ede79190a250565b610e59610f15565b6001600160a01b038116610e8257604051631e4fbdf760e01b81525f6004820152602401610548565b61088f81610f41565b600260015403610eae57604051633ee5aeb560e01b815260040160405180910390fd5b6002600155565b604080516001600160a01b0385811660248301528416604482015260648082018490528251808303909101815260849091019091526020810180516001600160e01b03166323b872dd60e01b179052610f0f908590610f90565b50505050565b5f546001600160a01b03163314610b555760405163118cdaa760e01b8152336004820152602401610548565b5f80546001600160a01b038381166001600160a01b0319831681178455604051919092169283917f8be0079c531659141344cd1fd0a4f28419497f9722a3daafe3b4186f6b6457e09190a35050565b5f5f60205f8451602086015f885af180610faf576040513d5f823e3d81fd5b50505f513d91508115610fc6578060011415610fd3565b6001600160a01b0384163b155b15610f0f57604051635274afe760e01b81526001600160a01b0385166004820152602401610548565b5f6020828403121561100c575f5ffd5b5035919050565b80356001600160a01b0381168114611029575f5ffd5b919050565b5f6020828403121561103e575f5ffd5b61104782611013565b9392505050565b602080825282518282018190525f918401906040840190835b81811015611085578351835260209384019390920191600101611067565b509095945050505050565b5f5f604083850312156110a1575f5ffd5b6110aa83611013565b946020939093013593505050565b5f5f604083850312156110c9575f5ffd5b823591506110d960208401611013565b90509250929050565b5f602082840312156110f2575f5ffd5b5051919050565b634e487b7160e01b5f52601160045260245ffd5b8082028115828204841417610c7957610c796110f9565b5f8261113e57634e487b7160e01b5f52601260045260245ffd5b500490565b81810381811115610c7957610c796110f9565b80820180821115610c7957610c796110f9565b5f6001820161117a5761117a6110f9565b506001019056fea2646970667358221220d2efd638639cd6e1c48a28236c2ac9aadcc1747616f15bb9489ad53bf4f0100564736f6c634300081c0033",
  "linkReferences": {},
  "deployedLinkReferences": {},
  "immutableReferences": {},
  "inputSourceName": "project/contracts/CoursePlatform.sol",
  "buildInfoId": "solc-0_8_28-9bb2aad82db7fe4ede1ea867b6efdf2a780cc73e"
}